:1003E500EF4E600F7D027CEFDCFEDDFCEF1F70F051
:0303F5001E80ED7A
:0103F80022E2
:05000300E4AF2BF52B1A
:0100080022D5
:1003B900E4FF20B1010F20B0027F0220B2027F03C7
:0503C90020B3027F04D7
:0103CE00220C
:1003320085292A1203B98F29E4FFFEEF2401FDE487
:100342003EFC7A00EDB52A0DEAB50409E5297005EF
:10035200EF04F52B220FBF00010EEF64044E70DB99
:010362002278
:1003CF001203A21204028F28E52860F7FD7C007F3C
:0603DF00011203F980ED9C
:03000B00020224CA
:10022400C0E0C0F0C083C082C0D075D000C000C0A0
:0D02340001C002C003C004C005C006C00721
:10024100758A18758CFCC3E525940AE52494004051
:10025100097524007525001203000525E5257002A6
:100261000524C3E5279402E526940040097526007C
:0E0271007527001203860527E5277002052673
:10027F00D007D006D005D004D003D002D001D000D3
:0B028F00D0D0D082D083D0F0D0E0327D
:05040200E4AF2EF52E11
:0104070022D2
:10000E00752F637590FFC2932097147F147E001294
:10001E0003E53097FD7F147E001203E5752F012056
:10002E0096147F147E001203E53096FD7F147E0039
:10003E001203E5752F052095147F147E001203E53B
:10004E003095FD7F147E001203E5752F0920941460
:10005E007F147E001203E53094FD7F147E001203A0
:10006E00E5752F0D7590FFC2922097147F147E00B8
:10007E001203E53097FD7F147E001203E5752F0203
:10008E002096147F147E001203E53096FD7F147EB9
:10009E00001203E5752F062095147F147E001203BF
:1000AE00E53095FD7F147E001203E5752F0A20942E
:1000BE00147F147E001203E53094FD7F147E00122F
:1000CE0003E5752F0E7590FFC2912097147F147E55
:1000DE00001203E53097FD7F147E001203E5752FA5
:1000EE00032096147F147E001203E53096FD7F14D4
:1000FE007E001203E5752F072095147F147E0012E3
:10010E0003E53095FD7F147E001203E5752F0B205D
:10011E0094147F147E001203E53094FD7F147E004C
:10012E001203E5752F0F7590FFC2902097147F1460
:10013E007E001203E53097FD7F147E001203E575F5
:10014E002F042096147F147E001203E53096FD7F57
:10015E00147E001203E5752F082095147F147E007F
:10016E001203E53095FD7F147E001203E5752F0C0A
:10017E002094147F147E001203E53094FD7F147ECC
:09018E00001203E5752F10AF2FDC
:010197002245
:10030000852C2D12000E8F2CE4FFFEEF2401FDE45E
:100310003EFC7A00EDB52D0EEAB5040AE52CB46377
:1003200005EF04F52E220FBF00010EEF64104E7092
:01033000DAF2
:0103310022A9
:1003630012123F065B4F666D7D077F6F777C395EA8
:10037300797100400909001002030405060708010A
:0203830008016F
:10029A00852280EF14B4080050549002B275F0031E
:1002AA00A4C58325F0C583730202CA0202CE0202E4
:1002BA00D20202D60202DA0202E20202EA0202F2E0
:1002CA00D2A4800ED2A48012D2A48016D2A4801AFC
:1002DA00C2A4D2A3D2A28016C2A4D2A3C2A2800E62
:1002EA00C2A4C2A3D2A28006C2A4C2A3C2A274128A
:0602FA002DF8E6F580225C
:1003860074092508F8E6FD7C00AF0812029A0508F4
:0B039600E50875F00984E5F004F508A7
:0103A1002239
:0903F900AE0574092FF8A60622D6
:1003A2005389F0438901C28DD28C758A18758CFCF1
:0703B200D2A9D2AFC2B922AB
:0300000002019862
:0C019800787FE4F6D8FD75812F0201DFAE
:1001A4000203CFE493A3F8E493A34003F68001F29F
:1001B40008DFF48029E493A3F85407240CC8C3335C
:1001C400C4540F4420C8834004F456800146F6DF2B
:1001D400E4800B0102040810204080900363E47E55
:1001E400019360BCA3FF543F30E509541FFEE49320
:1001F400A360010ECF54C025E060A840B8E493A3E7
:10020400FAE493A3F8E493A3C8C582C8CAC583CA11
:10021400F0A3C8C582C8CAC583CADFE9DEE780BEC9
:010385000077
:00000001FF
