:060BFB00C2A58F80D2A705
:080C01007F027EEFDEFEDFFC46
:010C090022C8
:0A0C4600C2A6120BFBC2A7020C01AC
:100B5400CFCDCFCECCCE12098B7C007D0A12098B6F
:040B6400ED2430FF4D
:0A0B6800D2A6120BFBC2A7020C017B
:100BAD00AE07BE0104ED148006BE0209ED243F44DC
:060BBD0080FF120C46222D
:100BC3007F38120C467F0C120C467F06120C467FB0
:040BD30001020C46C9
:0A0C5000AC03120BADAF04020B68F9
:060B31008B148A158916E1
:100B3700120BADE4FDAB14AA15A9168D82758300BF
:0C0B470012094CFF6006120B680D80E9DB
:010B5300227F
:0C0AFE007F0AEA24FFFDE434FFFC7E00C8
:080B0A008E198F1A8C1B8D1C43
:100B12007F017E00E4FBEBC3951CE51B6480F87447
:0E0B22008098500AAC19AD1A1209790B80E8C0
:010B300022A2
:040B90008A168B171F
:100B9400120BADAA18EAD39400400D120AFEAC164B
:080BA400AD17120B541A80ED8D
:010BAC002226
:100A5300120BADC3EA64809480400B7F2B120B68AA
:100A63008A228B23800E7F2D120B68C3E49BF52310
:100A7300E49AF522AA21EAD39400400D120AFEACAF
:090A830022AD23120B541A80ED80
:010A8C002247
:040A8D008A168B1723
:100A9100120BADAA18EAD3940040297F10120B0063
:100AA100AC16AD17CFCDCFCECCCE12098BEF540FF4
:100AB100FEC3940AEE5004243080022437FF120B47
:040AC100681A80D15E
:010AC500220E
:040AC6008A268B27CA
:100ACA00120BADAA28EAD394004028EA24FFFDE4D9
:100ADA0034FFFC7F027E00120B0AAC26AD27CFCD75
:100AEA00CFCECCCE12098BEF54012430FF120B6803
:030AFA001A80D28D
:010AFD0022D6
:100B7200414444522020434D4420204E554D0030E4
:0E0B8200302020202030302020203030300065
:1009E000120BC3120C697BFF7A0B79727D017F01B8
:1009F000120B317BFF7A0B79817D017F02120B3163
:100A0000120C0AEF7006120C17EF60F4120C6F8FC5
:100A10002B120C728F2AE52BFB7A007518027D01D0
:100A20007F02120A8DE52AFB7A007518027D077F86
:100A300002120A8DE52AB415021529E52AB4090225
:100A40000529E529FB7A007518037D0C7F02120B3E
:030A50009080ADE6
:100BD700EF4E600F7D027CEFDCFEDDFCEF1F70F057
:030BE7001E80ED80
:010BEA0022E8
:0B0C3000D288C289D2A8D2AFD2B8226D
:100BEB005389F0438901C28DC28CE4F58AF58C22BE
:0B0C3B00AD07AC068C8CAF058F8A2241
:090C5A00AF8CEFFEAD8AEDFF2224
:060C6300EF24FF928C2239
:060C6900120BEB020C303F
:0D0C0A00E50F6006E4F50F7F01227F002258
:0D0C1700E50E6006E4F50E7F01227F00224D
:030C6F00AF0C22A5
:030C7200AF0B22A3
:03000300020800F0
:10080000C0E0C0F0C083C082C0D075D000C000C0BE
:1008100001C002C003C004C005C006C007E50870DF
:100820000CFFFE120C3B7F01120C638049E508644B
:10083000017049120C5A8E098F0AE4FFFE120C3B1C
:10084000D3E50A94C8E50994324010E50A94B0E56E
:100850000994365006750802020931D3E50A94FE60
:10086000E50994294010E50A94E6E509942D50061F
:10087000750E01020929750801020931E5086402B3
:100880006003020931120C5A8E098F0AE4FFFE122E
:100890000C3BD3E50A946CE5099402402CE50A94DC
:1008A00054E50994065022E50D131313541F241028
:1008B000F8C000E6FFE50D5407FE7401A8060880A5
:1008C00002C333D8FCF45F8034D3E50A94D6E5093B
:1008D00094064030E50A94BEE509940A5026E50DD9
:1008E000131313541F2410F8C000E6FFE50D54073E
:1008F000FE7401A806088002C333D8FC4FD000F66E
:10090000050D8006750D00750801E50DC3942040A6
:1009100020750D00E511F4B5100FE513F4B51209BB
:1009200085100C85120B750F01E4FF120C6375081E
:1009300000D007D006D005D004D003D002D001D01B
:0C09400000D0D0D082D083D0F0D0E032C4
:03000000020C24CB
:0C0C2400787FE4F6D8FD75812B0209E012
:10094C00BB010CE58229F582E5833AF583E0225060
:10095C0006E92582F8E622BBFE06E92582F8E222AA
:0D096C00E58229F582E5833AF583E49322C4
:10097900EF8DF0A4A8F0CF8CF0A428CE8DF0A42E92
:02098900FE224C
:10098B00BC000BBE0029EF8DF084FFADF022E4CC50
:10099B00F875F008EF2FFFEE33FEEC33FCEE9DEC19
:1009AB00984005FCEE9DFE0FD5F0E9E4CEFD22ED5F
:1009BB00F8F5F0EE8420D21CFEADF075F008EF2FA9
:1009CB00FFED33FD4007985006D5F0F222C398FD9A
:0509DB000FD5F0EA2237
:00000001FF
