:100208001201B3C2A71200038F1DE51D60F7B2A744
:0202180080F371
:03000B0002009A56
:10009A00C0E0C0F0C083C082C0D075D000C000C02C
:0D00AA0001C002C003C004C005C006C007AD
:1000B700758A18758CFCC3E51A9414E519940040E9
:1000C70009751900751A00120182051AE51A7002DE
:1000D7000519C3E51C940AE51B9400400E751B0027
:1000E700751C00E4FDFC7F01120115051CE51C7061
:0300F70002051BE4
:1000FA00D007D006D005D004D003D002D001D0005A
:0B010A00D0D0D082D083D0F0D0E03203
:1001E000EF4E600F7D027CEFDCFEDDFCEF1F70F058
:0301F0001E80ED81
:0101F30022E9
:05000300E4AF22F5222C
:0100080022D5
:1001CA00E4FF20B1010F20B0027F0220B2027F03B8
:0501DA0020B3027F04C8
:0101DF0022FD
:100182008520211201CA8F20E4FFFEEF2401FDE445
:100192003EFC7A00EDB5210DEAB50409E5207005B3
:1001A200EF04F522220FBF00010EEF64044E70DB54
:0101B200222A
:1001B3005389F0438901C28DD28C758A18758CFCE2
:0701C300D2A9D2AFC2B9229C
:1001F40011083F065B4F666D7D077F6F777C395E24
:030204007971000D
:10011500EF14B40800505490012A75F003A4C58368
:1001250025F0C5837302014202014602014A02011C
:100135004E02015202015A02016202016AD2A480F2
:100145000ED2A48012D2A48016D2A4801AC2A4D240
:10015500A3D2A28016C2A4D2A3C2A2800EC2A4C2F8
:10016500A3D2A28006C2A4C2A3C2A274082DF8E637
:0D017500F5807F017E001201E085188022D8
:0300000002000EED
:0C000E00787FE4F6D8FD758122020055D1
:10001A00020208E493A3F8E493A34003F68001F2F2
:10002A0008DFF48029E493A3F85407240CC8C333E7
:10003A00C4540F4420C8834004F456800146F6DFB6
:10004A00E4800B01020408102040809001F4E47E51
:10005A00019360BCA3FF543F30E509541FFEE493AB
:10006A00A360010ECF54C025E060A840B8E493A372
:10007A00FAE493A3F8E493A3C8C582C8CAC583CA9D
:10008A00F0A3C8C582C8CAC583CADFE9DEE780BE55
:0102070000F6
:00000001FF
