:10015D00E4FDFC7F0112008FE4FDFC7F0812008F8F
:10016D001200FC8F19E51960EF7F647E0012018982
:0C017D00E519FD7C007F0112008F80DC82
:0501D300007FF7DFFED4
:0101D8002204
:04018900AD07AC060C
:10018D00E4FBFAED25E0FFEC33FEC3EB9FEA9E5056
:0D019D000CB2951201D30BBB00010A80E6E5
:0101AA002232
:1000FC00E4F51A20B1137F14FE1201BF30B1FD7F5D
:10010C00147E001201BF751A0120B0147F147E00FA
:10011C001201BF30B0FD7F147E001201BF751A02B0
:10012C0020B2147F147E001201BF30B2FD7F147E0A
:10013C00001201BF751A0320B3147F147E00120144
:10014C00BF30B3FD7F147E001201BF751A04AF1AC5
:01015C002280
:1001AB0011083F065B4F666D7D077F6F777C395E6D
:0301BB0079710057
:10008F00EF14B4080050549000A475F003A4C58376
:10009F0025F0C583730200BC0200C00200C4020039
:1000AF00C80200CC0200D40200DC0200E4D2A4801B
:1000BF000ED2A48012D2A48016D2A4801AC2A4D2C7
:1000CF00A3D2A28016C2A4D2A3C2A2800EC2A4C27F
:1000DF00A3D2A28006C2A4C2A3C2A274082DF8E6BE
:0D00EF00F5807F017E001201BF8518802280
:1001BF00EF4E600F7D027CEFDCFEDDFCEF1F70F079
:0301CF001E80EDA2
:0101D200220A
:03000000020003F8
:0C000300787FE4F6D8FD75811A02004AEF
:10000F0002015DE493A3F8E493A34003F68001F2A9
:10001F0008DFF48029E493A3F85407240CC8C333F2
:10002F00C4540F4420C8834004F456800146F6DFC1
:10003F00E4800B01020408102040809001ABE47EA5
:10004F00019360BCA3FF543F30E509541FFEE493B6
:10005F00A360010ECF54C025E060A840B8E493A37D
:10006F00FAE493A3F8E493A3C8C582C8CAC583CAA8
:10007F00F0A3C8C582C8CAC583CADFE9DEE780BE60
:0101BE000040
:00000001FF
