:10026300120374120362120329EF604B1203718F9E
:1002730025E525B41603E4F527E525B40C03752716
:1002830001E525B41803752702E525B45E03752738
:1002930003E5277004FF120377E527B401057F1EEA
:1002A300120377E527B402057F3C120377E527B4F1
:1002B30003057F5A120377E527FD7C007F011201B6
:0302C300F680A31F
:10000600EF4E600F7D027CEFDCFEDDFCEF1F70F033
:030016001E80ED5C
:0100190022C4
:1003050011083F065B4F666D7D077F6F777C395E11
:03031500797100FB
:1001F600EF14B40800505490020B75F003A4C583A5
:1002060025F0C5837302022302022702022B020293
:100216002F02023302023B02024302024BD2A480A7
:100226000ED2A48012D2A48016D2A4801AC2A4D25E
:10023600A3D2A28016C2A4D2A3C2A2800EC2A4C216
:10024600A3D2A28006C2A4C2A3C2A274082DF8E655
:0D025600F5807F017E0012000685188022D1
:1002EE0053890F438910C28FD28E758B18758DFC72
:0702FE00D2ABD2AFC2BB225C
:0B034300D288C289D2A8D2AFD2B82263
:060362001203190203431F
:0D032900E5206006E4F5207F01227F002220
:0D033600E51F6006E4F51F7F01227F002215
:03036E00AF1D229E
:03037100AF1C229C
:0300030002001EDA
:10001E00C0E0C0F0C083C082C0D075D000C000C0A8
:10002E0001C002C003C004C005C006C007E51970B8
:10003E000CFFFE12034E7F011203688049E519641E
:10004E000170491203598E1A8F1BE4FFFE12034EE4
:10005E00D3E51B94C8E51A94324010E51B94B0E525
:10006E001A9436500675190202014FD3E51B94FE01
:10007E00E51A94294010E51B94E6E51A942D5006D6
:10008E00751F0102014775190102014FE51964023E
:10009E00600302014F1203598E1A8F1BE4FFFE12EA
:1000AE00034ED3E51B946CE51A9402402CE51B9489
:1000BE0054E51A94065022E51E131313541F2421DF
:1000CE00F8C000E6FFE51E5407FE7401A80608807E
:1000DE0002C333D8FCF45F8034D3E51B94D6E51A03
:1000EE0094064030E51B94BEE51A940A5026E51E90
:1000FE00131313541F2421F8C000E6FFE51E540706
:10010E00FE7401A806088002C333D8FC4FD000F657
:10011E00051E8006751E00751901E51EC39420404C
:10012E0020751E00E522F4B5210FE524F4B5230950
:10013E0085211D85231C752001E4FF1203687519A6
:10014E0000D007D006D005D004D003D002D001D005
:0C015E0000D0D0D082D083D0F0D0E032AE
:100319005389F0438901C28DC28CE4F58AF58C2298
:0B034E00AD07AC068C8CAF058F8A2237
:09035900AF8CEFFEAD8AEDFF222E
:06036800EF24FF928C223D
:030374000202EE94
:030377008F2822AA
:03001B000202C618
:1002C600C0E0C0D0758B9C758DFF0529E529C394C8
:1002D600644003752900E528D395294004D290800F
:0802E60002C290D0D0D0E0323A
:0300000002016A90
:0C016A00787FE4F6D8FD7581290201B110
:10017600020263E493A3F8E493A34003F68001F23A
:1001860008DFF48029E493A3F85407240CC8C3338A
:10019600C4540F4420C8834004F456800146F6DF59
:1001A600E4800B0102040810204080900305E47EE1
:1001B600019360BCA3FF543F30E509541FFEE4934E
:1001C600A360010ECF54C025E060A840B8E493A315
:1001D600FAE493A3F8E493A3C8C582C8CAC583CA40
:1001E600F0A3C8C582C8CAC583CADFE9DEE780BEF8
:0103180000E4
:00000001FF
