:10034300EF4E600F7D027CEFDCFEDDFCEF1F70F0F3
:030353001E80ED1C
:010356002284
:06036B00C2A58F80D2A79D
:080371007F027EEFDEFEDFFCDF
:010379002261
:0A038500C2A612036BC2A7020371A7
:1002F200CFCDCFCECCCE1200427C007D0A1200427E
:04030200ED2430FFB7
:0A030600D2A612036BC2A702037116
:10032D00AE07BE0104ED148006BE0209ED243F4464
:06033D0080FF120385227F
:100357007F381203857F0C1203857F061203857F82
:040367000102038507
:0A038F00AC0312032DAF04020306B5
:0602CF008B088A09890A70
:1002D50012032DE4FDAB08AA09A90A8D82758300D6
:0C02E500120003FF60061203060D80E902
:0102F10022EA
:0C029C007F0AEA24FFFDE434FFFC7E0032
:0802A8008E0D8F0E8C0F8D10DE
:1002B0007F017E00E4FBEBC39510E50F6480F874CA
:0E02C0008098500AAC0DAD0E1200300B80E895
:0102CE00220D
:040310008A0A8B0BBF
:1003140012032DAA0CEAD39400400D12029CAC0ADD
:08032400AD0B1202F21A80ED8C
:01032C0022AE
:1001F10012032DC3EA64809480400B7F2B12030607
:100201008A168B17800E7F2D120306C3E49BF51708
:10021100E49AF516AA15EAD39400400D12029CAC9B
:0902210016AD171202F21A80ED6D
:01022A0022B1
:04022B008A1A8B1B85
:10022F0012032DAA1CEAD3940040297F1012029EBC
:10023F00AC1AAD1BCFCDCFCECCCE120042EF540FA8
:10024F00FEC3940AEE5004243080022437FF1203B9
:04025F00061A80D12A
:010263002278
:040264008A1F8B2042
:1002680012032DAA21EAD394004028EA24FFFDE4D2
:1002780034FFFC7F027E001202A8AC1FAD20CFCD58
:10028800CFCECCCE120042EF54012430FF12030629
:030298001A80D2F7
:01029B002240
:0B037A0041444A204E544320524700EB
:04039900022200003C
:100193001203577BFF7A03797A7D017F011202CF25
:1001A3007F9C1201238E228F23750C03AB23AA227B
:1001B3007D017F021203107FDC1201238E228F2325
:1001C300750C03AB23AA227D057F021203107FACBB
:1001D3001201238E228F23750C03AB23AA227D09E0
:0E01E3007F021203107F0A7E0012034380B2D7
:02012300AD0726
:10012500E4F508F509C2B5FBC2B674807E00A803E4
:10013500088006CEA2E713CE13D8F8FFEDF582EFBF
:10014500558224FF92B4D2B60BBB08DCC2B6E4FBE1
:10015500D2B6C2B630B714E47E80A803088005CEB7
:10016500C313CE13D8F94209EE42080BBB10E1C206
:10017500B6D2B5ED30E306E508FF7E0022E508C4FA
:0D018500F854F0C868FEE509C4540F48FFA7
:01019200224A
:0300000002009764
:0C009700787FE4F6D8FD7581230200DEBE
:10000300BB010CE58229F582E5833AF583E02250B2
:1000130006E92582F8E622BBFE06E92582F8E222FC
:0D002300E58229F582E5833AF583E4932216
:10003000EF8DF0A4A8F0CF8CF0A428CE8DF0A42EE4
:02004000FE229E
:10004200BC000BBE0029EF8DF084FFADF022E4CCA2
:10005200F875F008EF2FFFEE33FEEC33FCEE9DEC6B
:10006200984005FCEE9DFE0FD5F0E9E4CEFD22EDB1
:10007200F8F5F0EE8420D21CFEADF075F008EF2FFB
:10008200FFED33FD4007985006D5F0F222C398FDEC
:050092000FD5F0EA2289
:1000A300020193E493A3F8E493A34003F68001F2DF
:1000B30008DFF48029E493A3F85407240CC8C3335E
:1000C300C4540F4420C8834004F456800146F6DF2D
:1000D300E4800B0102040810204080900399E47E21
:1000E300019360BCA3FF543F30E509541FFEE49322
:1000F300A360010ECF54C025E060A840B8E493A3E9
:10010300FAE493A3F8E493A3C8C582C8CAC583CA13
:10011300F0A3C8C582C8CAC583CADFE9DEE780BECB
:01039D00005F
:00000001FF
