:0A08B9000808FEFDFBF7EFDFBF7F2C
:1008A300758920758DF3758BF3758780D28E759856
:0608B30050D2ACD2AF22CE
:0300230002088C44
:07088C00C0D075D000C007C9
:0B089300AF99C2988F993099FDC2996F
:05089E00D007D0D032AC
:0508C4001208A380FEF4
:03000000020800F3
:0C080000787FE4F6D8FD75810F020847F0
:10080C000208C4E493A3F8E493A34003F68001F236
:10081C0008DFF48029E493A3F85407240CC8C333ED
:10082C00C4540F4420C8834004F456800146F6DFBC
:10083C00E4800B01020408102040809008B9E47E8B
:10084C00019360BCA3FF543F30E509541FFEE493B1
:10085C00A360010ECF54C025E060A840B8E493A378
:10086C00FAE493A3F8E493A3C8C582C8CAC583CAA3
:10087C00F0A3C8C582C8CAC583CADFE9DEE780BE5B
:0108C3000034
:00000001FF
