:0A0CD7004D61747269784B65790075
:100BF000120CA07BFF7A0C79D77D017F01120C18B3
:100C00001208008F33E53360F7FB7A00751D027D13
:080C1000017F02120C5980E87B
:100C8C00EF4E600F7D027CEFDCFEDDFCEF1F70F0A1
:030C9C001E80EDCA
:010C9F002232
:060CC800C2A58F80D2A737
:080CCE007F027EEFDEFEDFFC79
:010CD60022FB
:0A0CE100C2A6120CC8C2A7020CCE76
:100C3B00CFCDCFCECCCE1209C87C007D0A1209C80D
:040C4B00ED2430FF65
:0A0C4F00D2A6120CC8C2A7020CCEF8
:100C7600AE07BE0104ED148006BE0209ED243F4412
:060C860080FF120CE122C8
:100CA0007F38120CE17F0C120CE17F06120CE17F01
:040CB00001020CE150
:0A0CEB00AC03120C76AF04020C4FAC
:060C18008B198A1A891BEA
:100C1E00120C76E4FDAB19AA1AA91B8D82758300FE
:0C0C2E00120989FF6006120C4F0D80E9CE
:010C3A002297
:0C0BBD007F0AEA24FFFDE434FFFC7E0008
:080BC9008E1E8F1F8C208D2170
:100BD1007F017E00E4FBEBC39521E5206480F8747E
:0E0BE1008098500AAC1EAD1F1209B60B80E8BA
:010BEF0022E3
:040C59008A1B8B1C4B
:100C5D00120C76AA1DEAD39400400D120BBDAC1BED
:080C6D00AD1C120C3B1A80EDD6
:010C7500225C
:100B1200120C76C3EA64809480400B7F2B120C4F38
:100B22008A278B28800E7F2D120C4FC3E49BF52859
:100B3200E49AF527AA26EAD39400400D120BBDAC25
:090B420027AD28120C3B1A80EDCE
:010B4B002287
:040B4C008A2B8B2C39
:100B5000120C76AA2DEAD3940040297F10120BBF05
:100B6000AC2BAD2CCFCDCFCECCCE1209C8EF540FCD
:100B7000FEC3940AEE5004243080022437FF120C86
:040B80004F1A80D1B7
:010B8400224E
:040B85008A308B31F6
:100B8900120C76AA32EAD394004028EA24FFFDE445
:100B990034FFFC7F027E00120BC9AC30AD31CFCDE2
:100BA900CFCECCCE1209C8EF54012430FF120C4F1E
:030BB9001A80D2CD
:010BBC002216
:100CB40011083F065B4F666D7D077F6F777C395E59
:030CC40079710043
:100AA900EF14B408005054900ABE75F003A4C5832E
:100AB90025F0C58373020AD6020ADA020ADE020A9F
:100AC900E2020AE6020AEE020AF6020AFED2A4804D
:100AD9000ED2A48012D2A48016D2A4801AC2A4D2A3
:100AE900A3D2A28016C2A4D2A3C2A2800EC2A4C25B
:100AF900A3D2A28006C2A4C2A3C2A274082DF8E69A
:090B0900F5807F017E00020C8CD6
:10080000E4F5197590FFC2932097137F14FE120C24
:100810008C3097FD7F147E00120C8C751901209688
:10082000147F147E00120C8C3096FD7F147E001213
:100830000C8C7519052095147F147E00120C8C30D9
:1008400095FD7F147E00120C8C7519092094147F7D
:10085000147E00120C8C3094FD7F147E00120C8CE0
:1008600075190D7590FFC2922097147F147E0012A7
:100870000C8C3097FD7F147E00120C8C75190220B1
:1008800096147F147E00120C8C3096FD7F147E002F
:10089000120C8C7519062095147F147E00120C8C96
:1008A0003095FD7F147E00120C8C75190A2094146B
:1008B0007F147E00120C8C3094FD7F147E00120C8D
:1008C0008C75190E7590FFC2912097147F147E00CD
:1008D000120C8C3097FD7F147E00120C8C7519035E
:1008E0002096147F147E00120C8C3096FD7F147EAF
:1008F00000120C8C7519072095147F147E00120CC1
:100900008C3095FD7F147E00120C8C75190B209491
:10091000147F147E00120C8C3094FD7F147E001224
:100920000C8C75190F7590FFC2902097147F147E60
:1009300000120C8C3097FD7F147E00120C8C751900
:10094000042096147F147E00120C8C3096FD7F14C8
:100950007E00120C8C7519082095147F147E0012ED
:100960000C8C3095FD7F147E00120C8C75190C20B8
:1009700094147F147E00120C8C3094FD7F147E0042
:08098000120C8C751910AF195F
:01098800224C
:03000000020A1DD4
:0C0A1D00787FE4F6D8FD758133020A648E
:10098900BB010CE58229F582E5833AF583E0225023
:1009990006E92582F8E622BBFE06E92582F8E2226D
:0D09A900E58229F582E5833AF583E4932287
:1009B600EF8DF0A4A8F0CF8CF0A428CE8DF0A42E55
:0209C600FE220F
:1009C800BC000BBE0029EF8DF084FFADF022E4CC13
:1009D800F875F008EF2FFFEE33FEEC33FCEE9DECDC
:1009E800984005FCEE9DFE0FD5F0E9E4CEFD22ED22
:1009F800F8F5F0EE8420D21CFEADF075F008EF2F6C
:100A0800FFED33FD4007985006D5F0F222C398FD5C
:050A18000FD5F0EA22F9
:100A2900020BF0E493A3F8E493A34003F68001F2E8
:100A390008DFF48029E493A3F85407240CC8C333CE
:100A4900C4540F4420C8834004F456800146F6DF9D
:100A5900E4800B0102040810204080900CB4E47E6D
:100A6900019360BCA3FF543F30E509541FFEE49392
:100A7900A360010ECF54C025E060A840B8E493A359
:100A8900FAE493A3F8E493A3C8C582C8CAC583CA84
:100A9900F0A3C8C582C8CAC583CADFE9DEE780BE3C
:010CC700002C
:00000001FF
