:0E0B7600436C6F636B3A0020203A20203A0057
:0C0B8400021500170217003B021300329C
:03000B00020920C7
:04092000C0E0C0D0A3
:10092400758A18758CFCC3E51294E8E511940340AC
:10093400487511007512000514E51470020513942E
:100944003CE513940040327513007514000518E556
:100954001870020517943CE5179400401C751700A5
:100964007518000516E516700205159418E515941A
:100974000040067515007516000512E51270020593
:010984001161
:05098500D0D0D0E032EB
:10098A00120B3F120B127BFF7A0B79767D017F01E6
:10099A00120AB47BFF7A0B797D7D017F02120AB4B9
:1009AA00750C02AB16AA157D017F02120AF5750CA9
:1009BA0002AB18AA177D047F02120AF5750C02AB66
:0C09CA0014AA137D077F02120AF580D4E6
:100B12005389F0438901C28DD28C758A18758CFC79
:070B2200D2A9D2AFC2B92233
:060B6700C2A58F80D2A799
:080B6D007F027EEFDEFEDFFCDB
:010B7500225D
:0A0B9100C2A6120B67C2A7020B6D8B
:100AD700CFCDCFCECCCE12083F7C007D0A12083F87
:040AE700ED2430FFCB
:0A0AEB00D2A6120B67C2A7020B6D22
:100B2900AE07BE0104ED148006BE0209ED243F4460
:060B390080FF120B912267
:100B3F007F38120B917F0C120B917F06120B917F56
:040B4F0001020B9103
:0A0B9B00AC03120B29AF04020AEBB1
:060AB4008B088A09890A83
:100ABA00120B29E4FDAB08AA09A90A8D82758300E5
:0C0ACA00120800FF6006120AEB0D80E924
:010AD60022FD
:0C0A81007F0AEA24FFFDE434FFFC7E0045
:080A8D008E0D8F0E8C0F8D10F1
:100A95007F017E00E4FBEBC39510E50F6480F874DD
:0E0AA5008098500AAC0DAD0E12082D0B80E8A3
:010AB3002220
:040AF5008A0A8B0BD3
:100AF900120B29AA0CEAD39400400D120A81AC0A00
:080B0900AD0B120AD71A80EDB2
:010B110022C1
:1009D600120B29C3EA64809480400B7F2B120AEB2A
:1009E6008A1E8B1F800E7F2D120AEBC3E49BF51F18
:1009F600E49AF51EAA1DEAD39400400D120A81ACB2
:090A06001EAD1F120AD71A80ED83
:010A0F0022C4
:040A10008A228B2388
:100A1400120B29AA24EAD3940040297F10120A83D6
:100A2400AC22AD23CFCDCFCECCCE12083FEF540FA6
:100A3400FEC3940AEE5004243080022437FF120AC5
:040A4400EB1A80D158
:010A4800228B
:040A49008A278B2845
:100A4D00120B29AA29EAD394004028EA24FFFDE4D9
:100A5D0034FFFC7F027E00120A8DAC27AD28CFCD6E
:100A6D00CFCECCCE12083FEF54012430FF120AEB4B
:030A7D001A80D20A
:010A80002253
:100B5300EF4E600F7D027CEFDCFEDDFCEF1F70F0DB
:030B63001E80ED04
:010B6600226C
:030000000208945F
:0C089400787FE4F6D8FD7581290208DBAE
:10080000BB010CE58229F582E5833AF583E02250AD
:1008100006E92582F8E622BBFE06E92582F8E222F7
:0D082000E58229F582E5833AF583E4932211
:10082D00EF8DF0A4A8F0CF8CF0A428CE8DF0A42EDF
:02083D00FE2299
:10083F00BC000BBE0029EF8DF084FFADF022E4CC9D
:10084F00F875F008EF2FFFEE33FEEC33FCEE9DEC66
:10085F00984005FCEE9DFE0FD5F0E9E4CEFD22EDAC
:10086F00F8F5F0EE8420D21CFEADF075F008EF2FF6
:10087F00FFED33FD4007985006D5F0F222C398FDE7
:05088F000FD5F0EA2284
:1008A00002098AE493A3F8E493A34003F68001F2DB
:1008B00008DFF48029E493A3F85407240CC8C33359
:1008C000C4540F4420C8834004F456800146F6DF28
:1008D000E4800B0102040810204080900B84E47E29
:1008E000019360BCA3FF543F30E509541FFEE4931D
:1008F000A360010ECF54C025E060A840B8E493A3E4
:10090000FAE493A3F8E493A3C8C582C8CAC583CA0E
:10091000F0A3C8C582C8CAC583CADFE9DEE780BEC6
:010B90000064
:00000001FF
