:1000BF00EF4E600F7D027CEFDCFEDDFCEF1F70F07A
:0300CF001E80EDA3
:0100D200220B
:03001C003132334B
:0300230002006B6D
:10006B00C0E0C0F0C083C082C0D075D000C000C05B
:10007B0001C002C003C004C005C006C0071200E7E0
:10008B008F08D007D006D005D004D003D002D00102
:0D009B00D000D0D0D082D083D0F0D0E032A1
:1000260012000390001CE493B5080575A0FE80F34A
:1000360090001DE493B5080575A0FD80E690001EAE
:10004600E493B5080575A0FC80D9E508B4300575BC
:10005600A0FB80CFE4F5A07F351200DF7F507E0045
:050066001200BF80BE86
:1000A8005389F0438901C28DD28C758A18758CFCEE
:0700B800D2A9D2AFC2B922A8
:1000030075985075878053890F438920758DF375D3
:090013008BF3D28ED2AFD2AC22E5
:0800DF008F993099FDC29922AE
:0700E700309802AF99C298A6
:0100EE0022EF
:030000000200D328
:0C00D300787FE4F6D8FD75810802002655
:00000001FF
