:100F6100EF4E600F7D027CEFDCFEDDFCEF1F70F0C9
:030F71001E80EDF2
:010F7400225A
:100D0300E4F52720B1137F14FE120F6130B1FD7F8C
:100D1300147E00120F6175270120B0147F147E002A
:100D2300120F6130B0FD7F147E00120F6175270230
:100D330020B2147F147E00120F6130B2FD7F147E47
:100D430000120F6175270320B3147F147E00120F66
:100D53006130B3FD7F147E00120F61752704AF2746
:010D6300226D
:060F9B00C2A58F80D2A761
:080FA1007F027EEFDEFEDFFCA3
:010FA9002225
:0A0FCF00C2A6120F9BC2A7020FA1D9
:100E9100CFCDCFCECCCE120B227C007D0A120B22FD
:040EA100ED2430FF0D
:0A0EA500D2A6120F9BC2A7020FA1F4
:100F4B00AE07BE0104ED148006BE0209ED243F443A
:060F5B0080FF120FCF22FF
:100F75007F38120FCF7F0C120FCF7F06120FCF7F56
:040F850001020FCF87
:0A0FD900AC03120F4BAF04020EA58B
:060E6E008B088A09890AC5
:100E7400120F4BE4FDAB08AA09A90A8D8275830001
:0C0E8400120AE3FF6006120EA50D80E9C3
:010E9000223F
:0C0E0F007F0AEA24FFFDE434FFFC7E00B3
:080E1B008E0D8F0E8C0F8D105F
:100E23007F017E00E4FBEBC39510E50F6480F8744B
:0E0E33008098500AAC0DAD0E120B100B80E82B
:010E4100228E
:040EAF008A0A8B0B15
:100EB300120F4BAA0CEAD39400400D120E0FAC0A8A
:080EC300AD0B120E911A80ED37
:010ECB002204
:100D6400120F4BC3EA64809480400B7F2B120EA5B4
:100D74008A168B17800E7F2D120EA5C3E49BF517E0
:100D8400E49AF516AA15EAD39400400D120E0FAC9E
:090D940016AD17120E911A80ED44
:010D9D002233
:040D9E008A1A8B1B07
:100DA200120F4BAA1CEAD3940040297F10120E1195
:100DB200AC1AAD1BCFCDCFCECCCE120B22EF540F3F
:100DC200FEC3940AEE5004243080022437FF120E30
:040DD200A51A80D10D
:010DD60022FA
:040DD7008A1F8B20C4
:100DDB00120F4BAA21EAD394004028EA24FFFDE42A
:100DEB0034FFFC7F027E00120E1BAC1FAD20CFCD5B
:100DFB00CFCECCCE120B22EF54012430FF120EA516
:030E0B001A80D278
:010E0E0022C1
:100F34005389F0438901C28DD28C758A18758CFC53
:070F4400D2A9D2AFC2B9220D
:0C0FB70054656D706572617475726500A0
:100C5300120FAA7FE87E03120F61120F757BFF7AD2
:100C63000F79B77D017F01120E6E120FAA120E4289
:100C73008F268E258D248C23E4FFFEFDFCAB26AA54
:100C830025A924A8231209A6501E7B2D7D017F02CE
:100C9300120FD9AF26AE25AD24AC23120A138F262B
:100CA3008E258D248C2380097B2B7D017F02120FDF
:100CB300D9AF26AE25AD24AC23120A62AB07AA0630
:100CC300750C037D027F02120EAF7B2E7D057F0222
:100CD300120FD97F007E407D1C7C46AB26AA25A936
:100CE30024A823120800120A62E47B107A27F9F879
:100CF300120BB3750C047D067F02120EAF020C6D4E
:100EE900D2B7C2B77FF7DFFED2B77F20DFFEA2B746
:090EF900E433FE7FF7DFFEAF06D3
:010F020022CC
:100F8900C2B77E04DEFEEF24FF92B77E18DEFED2E2
:010F9900B7A0
:010F9A002234
:100F1C00C2B77F02DFFED2B77F02DFFEA2B7E43397
:070F2C00FE7F18DFFEAF0697
:010F3300229B
:020F0300AD0738
:100F0500E4FC7401A804088002C333D8FC5DFF1219
:060F15000F890CBC08EC82
:010F1B0022B3
:100ECC00E4FDFC120F1CEF600D7401A804088002F5
:0C0EDC00C333D8FC42050CBC08E9AF058C
:010EE80022E7
:0D0FAA00120EE97FCC120F037F44020F03EB
:100E4200120EE97FCC120F037FBE120F03120ECCDB
:100E52008F08120ECCEFFEE508FFFDAC06EC120A7D
:0B0E620029E4FBFA79807841120909AD
:010E6D002262
:10080000EC4D6011E8497017ED33EC3304600DE4F2
:10081000FCFFFEFD22E933E8330470F8020ACE1231
:100820000A9958046009E4CC248150062850090232
:100830000AD8284003020AD5C0E0EB4A7044B980C8
:1008400006D0E0FB020AC4EF4E701CBD8008EBFF2F
:10085000EAFEE9FD80EBE98DF0A4FEE5F00208E98F
:10086000E9CDF9EAFEEBFFEF89F0A4FCE5F0CE89D3
:10087000F0A42EFFE435F0CD89F0A42DFEE435F090
:100880008067EF4E7005BD80D780C3EF8BF0A4ACBE
:10089000F0EE8BF0A42CFCE435F0F8EF8AF0A42CF9
:1008A000E5F038FCE433CB8DF0A42CFCE5F03BF80C
:1008B000EE8AF0A42CFCE5F038F8E433CF89F0A4FC
:1008C0002CFCE5F038CF3400CE89F0A42FFFE5F002
:1008D0003EFEE433C98DF0A42EFEE5F039CD8AF05A
:1008E000A42FFFE5F03EFEE43DFD33D0E0FB5007D2
:1008F0000BBB000F020AD8EC2CFCEF33FFEE33FEEB
:06090000ED33FD020AB018
:10090600020AD8EC5D046005E859047003020ACEB9
:10091600120A99580460F6EC4860F2EC7004FDFE89
:10092600FF22C860DB2481C85009C39860025006C4
:10093600020AD59850CAF582E9294B4A7005AB825E
:10094600020AC475F0007C1A7880C3EF9BEE9AED1C
:1009560099400DC3EF9BFFEE9AFEED99FDE842F03C
:10096600DC23ACF0D0E0FFD0E0FED0E0FDAB82208F
:10097600E7101BEB60BAEC2CFCEF33FFEE33FEED19
:1009860033FD020AB0E803F830E705C0F075F00061
:10099600EF2FFFEE33FEED33FD40B830E7C280AAFD
:1009A60074F8CC6480CCC86480C8F582046043C304
:1009B600EB9FF5F0EA9E42F0E99D42F0E89C45F097
:1009C60060305018E5825FFFE582F42B5582FB50BC
:1009D600210ABA001D09B90019088016E5825BFBD9
:1009E600E582F42F5582FF50090EBE00050DBD00AD
:1009F600010CC3EB9FF5F0EA9E42F0E99D42F0E858
:0D0A06009C45F06007CC4820E701B3EC22CE
:100A1300ED33EC33600A047003BD8004ECB2E7FCF1
:010A230022B0
:100A240075F020800E75F010800575F0087D007E4D
:100A3400007F003392D530D503120C45EC334010BF
:100A4400EF33FFEE33FEED33FDEC33FCD5F0ED2256
:0E0A5400E5F0247EA2D513CC92E7CDCEFF2292
:100A6200EDD2E7CD33EC3392D524814006E4FFFE8C
:100A7200FDFC22FCE4CFCECDCC24E0501174FF80EB
:100A8200EDC3CC13CCCD13CDCE13CECF13CF047088
:070A9200F030D5DE020C4537
:100A9900E9D2E7C933E833F892D5EDD2E7CD33ECA3
:070AA90033FC5002B2D5221C
:100AB000EC30E7100FBF000C0EBE00080DBD0004A7
:100AC0000BEB6014A2D5EB13FCED92E7FD2274FF53
:100AD000FCFDFEFF22E480F8A2D574FF13FC7D80AC
:030AE000E480EFC0
:03000000020FC329
:0C0FC300787FE4F6D8FD758127020C53FE
:100AE300BB010CE58229F582E5833AF583E02250C8
:100AF30006E92582F8E622BBFE06E92582F8E22212
:0D0B0300E58229F582E5833AF583E493222B
:100B1000EF8DF0A4A8F0CF8CF0A428CE8DF0A42EF9
:020B2000FE22B3
:100B2200BC000BBE0029EF8DF084FFADF022E4CCB7
:100B3200F875F008EF2FFFEE33FEEC33FCEE9DEC80
:100B4200984005FCEE9DFE0FD5F0E9E4CEFD22EDC6
:100B5200F8F5F0EE8420D21CFEADF075F008EF2F10
:100B6200FFED33FD4007985006D5F0F222C398FD01
:050B72000FD5F0EA229E
:100B770075F008758200EF2FFFEE33FECD33CDCC35
:100B870033CCC58233C5829BED9AEC99E5829840B8
:100B97000CF582EE9BFEED9AFDEC99FC0FD5F0D695
:100BA700E4CEFBE4CDFAE4CCF9A88222B800C1B9BF
:100BB7000059BA002DEC8BF084CFCECDFCE5F0CBFD
:100BC700F97818EF2FFFEE33FEED33FDEC33FCEB36
:100BD70033FB10D703994004EB99FB0FD8E5E4F9F1
:100BE700FA227818EF2FFFEE33FEED33FDEC33FCDE
:100BF700C933C910D7059BE99A4007EC9BFCE99AD2
:100C0700F90FD8E0E4C9FAE4CCFB2275F010EF2F16
:100C1700FFEE33FEED33FDCC33CCC833C810D70716
:100C27009BEC9AE899400AED9BFDEC9AFCE899F851
:0E0C37000FD5F0DAE4CDFBE4CCFAE4C8F922E4
:0E0C4500C3E49FFFE49EFEE49DFDE49CFC22C0
:00000001FF
