:05042200E4AF31F531EB
:0104270022B2
:1003CF00E4FF20B1010F20B0027F0220B2027F03B1
:0503DF0020B3027F04C1
:0103E40022F6
:10028600852F301203CF8F2FE4FFFEEF2401FDE40C
:100296003EFC7A00EDB5300DEAB50409E52F700590
:1002A600EF04F531220FBF00010EEF64044E70DB40
:0102B6002225
:10000E001203B81204228F2EE52E6079B4010EE58C
:10001E002C70047F0180027F008F2C8068E52EB447
:10002E000209E4F52BF52AF52D805AE52E640370AE
:10003E0035E52BFD7C00E4FF1203377F057E0012B1
:10004E0003E5E52AFD7C007F011203377F057E0064
:10005E001203E5E52DFD7C007F021203377F057E3E
:10006E00001203E5801FE52EB4041AE4FFFE12020F
:10007E00B78F2B7F017E001202B78F2A7F027E0080
:10008E001202B78F2DE52B75F00A84FD7C007F01DF
:10009E00120410E52B75F00A84E5F0FD7C007F025A
:1000AE001204107D117C007F03120410E52A75F0F6
:1000BE000A84FD7C007F04120410E52A75F00A8480
:1000CE00E5F0FD7C007F051204107D117C007F069B
:1000DE00120410E52D75F00A84FD7C007F071204D2
:1000EE0010E52D75F00A84E5F0FD7C007F08120402
:0400FE0010020011DB
:10031000E52C6022052DE52DC394644019E4F52DEC
:10032000052AE52A943C400EE4F52A052BE52B949A
:070330003C4003E4F52B2221
:03000B00020102ED
:10010200C0E0C0F0C083C082C0D075D000C000C0C3
:0D01120001C002C003C004C005C006C00744
:10011F00758A18758CFCC3E5259414E5249400406A
:10012F00097524007525001202860525E525700244
:10013F000524C3E5279402E526940040097526009F
:10014F0075270012039C0527E52770020526C3E5D6
:10015F0029940AE528940040097528007529001292
:0A016F0003100529E5297002052898
:10017900D007D006D005D004D003D002D001D000DA
:0B018900D0D0D082D083D0F0D0E03284
:10035B0012123F065B4F666D7D077F6F777C395EB0
:10036B0079710040090900101010101010101001C5
:02037B00080177
:10022000852280EF14B40800505490023875F00312
:10023000A4C58325F0C58373020250020254020252
:100240005802025C02026002026802027002027836
:10025000D2A4800ED2A48012D2A48016D2A4801A76
:10026000C2A4D2A3D2A28016C2A4D2A3C2A2800EDC
:10027000C2A4C2A3D2A28006C2A4C2A3C2A2741204
:060280002DF8E6F58022D6
:10039C0074092508F8E6FD7C00AF08120220050858
:0B03AC00E50875F00984E5F004F50891
:0103B7002223
:09041000AE0574092FF8A60622BE
:1003B8005389F0438901C28DD28C758A18758CFCDB
:0703C800D2A9D2AFC2B92295
:1003E500EF4E600F7D027CEFDCFEDDFCEF1F70F051
:0303F5001E80ED7A
:0103F80022E2
:100337008F328C338D341204197FA01202E7120317
:10034700F9AF321202E71203F9AF341202E71203D0
:04035700F9020003A4
:0202B7008F3284
:1002B9001204197FA01202E71203F9AF321202E702
:1002C9001203F91204197FA11202E71203F91203AA
:0D02D9007E8F337F01120406120003AF3345
:0102E60022F5
:09041900D2A1D2A0C2A0C2A1220E
:07000300C2A0D2A1D2A0228D
:0202E700AD0761
:1002E900E4FB74807E00A803088006CEA2E713CE43
:1002F90013D8F8FFEDF582EF558224FF92A0D2A121
:06030900C2A10BBB08DCE1
:01030F0022CB
:10037E00E4FFD2A0FED2A130A00D7480A8060880A2
:0D038E0002C313D8FC4207C2A10EBE08E84E
:01039B00223F
:0A040600EF24FF92A0D2A1C2A122B0
:0C03F900E4FFD2A0D2A130A0010FC2A1ED
:0104050022D4
:0300000002019466
:0C019400787FE4F6D8FD7581340201DBB1
:1001A00002000EE493A3F8E493A34003F68001F267
:1001B00008DFF48029E493A3F85407240CC8C33360
:1001C000C4540F4420C8834004F456800146F6DF2F
:1001D000E4800B010204081020408090035BE47E61
:1001E000019360BCA3FF543F30E509541FFEE49324
:1001F000A360010ECF54C025E060A840B8E493A3EB
:10020000FAE493A3F8E493A3C8C582C8CAC583CA15
:10021000F0A3C8C582C8CAC583CADFE9DEE780BECD
:01037D00007F
:00000001FF
