:100BDE00E4F508F509120C1E750E047BA67A007D4D
:060BEE00017F02020BC1B1
:100B1A008F2C8C2D8D2E120C787FA0120AF1120CBC
:100B2A0041AF2C120AF1120C41AF2E120AF1120C2B
:040B3A0041020C81E7
:020AC1008F3272
:100AC300120C787FA0120AF1120C41AF32120AF114
:100AD300120C41120C787FA1120AF1120C41120B75
:0D0AE300858F337F01120C5A120C81AF3346
:010AF00022E3
:100C0A00EF4E600F7D027CEFDCFEDDFCEF1F70F023
:030C1A001E80ED4C
:010C1D0022B4
:090C7800D2A1D2A0C2A0C2A122A7
:070C8100C2A0D2A1D2A02203
:020AF100AD074F
:100AF300E4FB74807E00A803088006CEA2E713CE31
:100B030013D8F8FFEDF582EF558224FF92A0D2A10E
:060B1300C2A10BBB08DCCF
:010B190022B9
:100B8500E4FFD2A0FED2A130A00D7480A806088093
:0D0B950002C313D8FC4207C2A10EBE08E83F
:010BA2002230
:0A0C5A00EF24FF92A0D2A1C2A12254
:0C0C4100E4FFD2A0D2A130A0010FC2A19C
:010C4D002284
:060C3200C2A58F80D2A7CD
:080C38007F027EEFDEFEDFFC0F
:010C40002291
:0A0C6400C2A6120C32C2A7020C381F
:100BA300CFCDCFCECCCE1209067C007D0A1209062A
:040BB300ED2430FFFE
:0A0BB700D2A6120C32C2A7020C38BD
:100BF400AE07BE0104ED148006BE0209ED243F4495
:060C040080FF120C6422C7
:100C1E007F38120C647F0C120C647F06120C647FFA
:040C2E0001020C644F
:0A0C6E00AC03120BF4AF04020BB745
:060B62008B2F8A3089315F
:100B6800120BF4E4FDAB2FAA30A9318D82758300F6
:0C0B78001208C7FF6006120BB70D80E9E1
:010B8400224E
:0C0A8E007F0AEA24FFFDE434FFFC7E0038
:080A9A008E0F8F108C118D12DC
:100AA2007F017E00E4FBEBC39512E5116480F874CC
:0E0AB2008098500AAC0FAD101208F40B80E8CB
:010AC0002213
:040BC1008A0C8B0D02
:100BC500120BF4AA0EEAD39400400D120A8EAC0C57
:080BD500AD0D120BA31A80ED17
:010BDD0022F5
:1009AE00120BF4C3EA64809480400B7F2B120BB7BA
:1009BE008A208B21800E7F2D120BB7C3E49BF5216D
:1009CE00E49AF520AA1FEAD39400400D120A8EACC9
:0909DE0020AD21120BA31A80EDDB
:0109E70022ED
:0409E8008A248B25AD
:1009EC00120BF4AA26EAD3940040297F10120A9025
:1009FC00AC24AD25CFCDCFCECCCE120906EF540F03
:100A0C00FEC3940AEE5004243080022437FF120BEC
:040A1C00B71A80D1B4
:010A200022B3
:040A21008A298B2A69
:100A2500120BF4AA2BEAD394004028EA24FFFDE434
:100A350034FFFC7F027E00120A9AAC29AD2ACFCD85
:100A4500CFCECCCE120906EF54012430FF120BB7DE
:030A55001A80D232
:010A5800227B
:050C8800C2B6C2B52256
:020A5900A907EB
:100A5B00E4FBFAAF0374807E00A807088006CEA2E1
:100A6B00E713CE13D8F8FFE9FDEF5D24FF92B4D264
:100A7B00B6C2B60BBB00010AEB64084A70D5D2B5FF
:020A8B00C2B5F2
:010A8D002246
:100B3E00AE05AC07AF06120A59AF047480A80708B9
:100B4E008002C313D8FCF4F5807F017E00120C0ADC
:040B5E007580FF227D
:10095B00000000000000007F1010107F001C2A2AEE
:10096B002A1A007E0102007E0102001C22221C00BA
:10097B007D000000000000000000000000000000EF
:10098B00464A52620060101E10600046281028462E
:10099B0000182442211121422418007D0000000080
:0309AB0000000049
:040800008E138F14B0
:10080400E4F517F518F519F51A120C88E5146401C6
:1008140045137050F515F516AF16EF251890095BC2
:1008240093FD120B3E0516E51670020515C39407D9
:10083400E515940040E2051AE51A70020519D394EF
:1008440014E519940040C5E4F519F51A0518E518DE
:1008540070020517D39420E517940040AFE4F51710
:10086400F51880A8E5146402451370A0F515F51673
:10087400AF16EF251890098493FD120B3E0516E57B
:100884001670020515C39407E515940040E2051A95
:10089400E51A70020519D39414E519940050030263
:1008A4000810E4F519F51A0518E51870020517D3B0
:1008B4009420E51794005003020810E4F517F51886
:0308C40002081017
:03000000020C4EA1
:0C0C4E00787FE4F6D8FD758133020BDEE0
:1008C700BB010CE58229F582E5833AF583E02250E6
:1008D70006E92582F8E622BBFE06E92582F8E22230
:0D08E700E58229F582E5833AF583E493224A
:1008F400EF8DF0A4A8F0CF8CF0A428CE8DF0A42E18
:02090400FE22D1
:10090600BC000BBE0029EF8DF084FFADF022E4CCD5
:10091600F875F008EF2FFFEE33FEEC33FCEE9DEC9E
:10092600984005FCEE9DFE0FD5F0E9E4CEFD22EDE4
:10093600F8F5F0EE8420D21CFEADF075F008EF2F2E
:10094600FFED33FD4007985006D5F0F222C398FD1F
:050956000FD5F0EA22BC
:00000001FF
