:0601B9000419001E3C5A6F
:10019B001201D31201078F1DE51DB40105051F5375
:0E01AB001F03E51FFD7C007F0112009A80E516
:03000B0002016887
:10016800C0E0C0D075D000C000758A9C758CFF05B2
:100178001EE51EC394644003751E007419251FF8FC
:10018800E6D3951E4004D2908002C290D000D0D011
:03019800D0E03282
:1001D3005389F0438901C28DD28C758A9C758CFF3B
:0701E300D2A9D2AFC2B9227C
:1001EA00EF4E600F7D027CEFDCFEDDFCEF1F70F04E
:0301FA001E80ED77
:0101FD0022DF
:10010700E4F52020B1137F14FE1201EA30B1FD7F20
:10011700147E001201EA75200120B0147F147E00BE
:100127001201EA30B0FD7F147E001201EA75200249
:1001370020B2147F147E001201EA30B2FD7F147ED4
:10014700001201EA75200320B3147F147E00120108
:10015700EA30B3FD7F147E001201EA752004AF2058
:010167002275
:1001BF0011083F065B4F666D7D077F6F777C395E59
:0301CF0079710043
:10009A00EF14B4080050549000AF75F003A4C58360
:1000AA0025F0C583730200C70200CB0200CF02000D
:1000BA00D30200D70200DF0200E70200EFD2A480D9
:1000CA000ED2A48012D2A48016D2A4801AC2A4D2BC
:1000DA00A3D2A28016C2A4D2A3C2A2800EC2A4C274
:1000EA00A3D2A28006C2A4C2A3C2A274082DF8E6B3
:0D00FA00F5807F017E001201EA851880224A
:0300000002000EED
:0C000E00787FE4F6D8FD758120020055D3
:10001A0002019BE493A3F8E493A34003F68001F260
:10002A0008DFF48029E493A3F85407240CC8C333E7
:10003A00C4540F4420C8834004F456800146F6DFB6
:10004A00E4800B01020408102040809001B9E47E8C
:10005A00019360BCA3FF543F30E509541FFEE493AB
:10006A00A360010ECF54C025E060A840B8E493A372
:10007A00FAE493A3F8E493A3C8C582C8CAC583CA9D
:10008A00F0A3C8C582C8CAC583CADFE9DEE780BE55
:0101D200002C
:00000001FF
