:10006000000000000000001C224141410043241810
:10007000182443003F4C4A4939003C4249490E008C
:100080003F48484830007D007F08087F001F28480F
:10009000281F007F08087F001F2848281F007F08AE
:0F00A000087F001F2848281F00000000000000F4
:10000300E4F50AF50BF50CF50D120128E4F508F5F6
:1000130009AF09EF250B90006093FD1200E4050979
:10002300E50970020508C39407E508940040E2055A
:100033000DE50D7002050CD39414E50C940040CC2F
:10004300E4F50CF50D050BE50B7002050AD3944797
:0D005300E50A940040B6E4F50AF50B80AF15
:05012800C2B6C2B522C1
:0200AF00A9079F
:1000B100E4FBFAAF0374807E00A807088006CEA295
:1000C100E713CE13D8F8FFE9FDEF5D24FF92B4D218
:1000D100B6C2B60BBB00010AEB64084A70D5D2B5B3
:0200E100C2B5A6
:0100E30022FA
:1000E400AE05AC07AF061200AFAF047480A80708D2
:1000F4008002C313D8FCF4F5807F017E001201084E
:040104007580FF22E1
:10010800EF4E600F7D027CEFDCFEDDFCEF1F70F030
:030118001E80ED59
:01011B0022C1
:0300000002011CDE
:0C011C00787FE4F6D8FD75810D02000329
:00000001FF
