:10040900011408010EF70115010108000216000088
:10041A00758901758C0C758A0CD2A9D2AFD28C223F
:04042A007F107E279A
:0B042E00EF1FAC0670011E4C70F622A0
:1003DD00D2B5D2B6E4FBFAEFC4131313540124FFC4
:1003ED0092B4EF25E0FFC2B6D2B60BBB00010AEB0B
:0B03FD0064084A70E2C2B5D2B58D80E2
:0104080022D1
:1002600074FFFBFA75900FE590640F605C7FF47E7D
:100270000112042EE590640F604F75900FAF90EF60
:1002800024F5601024FE601214601524077015E434
:10029000FAFB80107A007B01800A7A007B028004DE
:1002A0007A007B037590F0AF90EF2450600C24E04F
:1002B000600C24F0600C2470800F740480067408B5
:0D02C0008002740C2BFBE43AFAAE02AF038F
:0102CD00220E
:10037F00AE0FE50F64806006E50F25E0F50FAD09C0
:10038F007C01ECC39F5017740F2CF8E6F9A606AE4C
:0E039F000174092CF8E6FBA605AD030C80E402
:0103AD00222D
:1003AE00AE0FE50F64016006E50FC313F50FAD093F
:1003BE007C01ECC39F5017740F2CF8E6F9A606AE1D
:0E03CE000174092CF8E6FBA605AD030C80E4D3
:0103DC0022FE
:10034E00AE09E509647F6008E50925E0F5090509B0
:10035E00AD0F7C01ECC39F501774092CF8E6F9A67B
:10036E0006AE01740F2CF8E6FBA605AD030C80E477
:01037E00225C
:10031B00AE09E50964FE600AE509C313F5092480FB
:10032B00F509AD0F7C01ECC39F501774092CF8E64F
:10033B00F9A606AE01740F2CF8E6FBA605AD030C6F
:02034B0080E44C
:01034D00228D
:1000B3007E20751FFB85140F850E0912041AE50FA8
:1000C3006E705DE509651F7057E515C39405501EF5
:1000D300740E2515F8E6FF740F2515F8A6077408A6
:1000E3002515F8E6FF74092515F8A607051512026C
:1000F300CE7C007D081201D5AF057401A8070880E6
:1001030002C333D8FCF4F51F1202CE7C007D081223
:1001130001D5AF057401A807088002C333D8FCFEDC
:10012300AF06AD1F1203DDE4F51CE51CC3951550A6
:100133008D740F251CF8E6FF7409251CF8E6FD12E3
:0601430003DD051C80E451
:03000B0002000EE2
:10000E00C0E0C0D075D000C000C001C002C003C0A7
:07001E0004C005C006C00785
:10002500120260AD07EDF46024BD010675080012EB
:10003500042ABD090675080112042ABD04067508BF
:100045000212042ABD060675080312042AD3E51711
:100055009420E516940340067516007517000517DC
:10006500E5177002051654077029E5081460111488
:1000750060151460192403701AAF1512037F8013DD
:10008500AF151203AE800CAF1512034E8005AF15E8
:0900950012031B758C0C758A0C1A
:10009E00D007D006D005D004D003D002D001D000B6
:0500AE00D0D0D0E032CB
:03000000020149B1
:0C014900787FE4F6D8FD75811F0201905C
:1001D500C2D5EC30E709B2D5E4C39DFDE49CFCEE45
:1001E50030E715B2D5E4C39FFFE49EFE12020BC3B0
:1001F500E49DFDE49CFC800312020B30D507C3E4AB
:060205009FFFE49EFE22B3
:1002CE00AC18AD19AE1AAF1B7810EC4D4E4F700432
:1002DE007CA57DA5C3EC13FCED13FDEE13FEEF1311
:1002EE00FF5010EC64CCFCED644CFDEE644EFEEF62
:1002FE0064CEFFD8DF8C188D198E1A8F1BEE547FAB
:0D030E00FE228E188F1974A5F51AF51B221A
:100155000200B3E493A3F8E493A34003F68001F20D
:1001650008DFF48029E493A3F85407240CC8C333AB
:10017500C4540F4420C8834004F456800146F6DF7A
:10018500E4800B0102040810204080900409E47EFD
:10019500019360BCA3FF543F30E509541FFEE4936F
:1001A500A360010ECF54C025E060A840B8E493A336
:1001B500FAE493A3F8E493A3C8C582C8CAC583CA61
:1001C500F0A3C8C582C8CAC583CADFE9DEE780BE19
:0104190000E2
:10020B00BC000BBE0029EF8DF084FFADF022E4CCD7
:10021B00F875F008EF2FFFEE33FEEC33FCEE9DECA0
:10022B00984005FCEE9DFE0FD5F0E9E4CEFD22EDE6
:10023B00F8F5F0EE8420D21CFEADF075F008EF2F30
:10024B00FFED33FD4007985006D5F0F222C398FD21
:05025B000FD5F0EA22BE
:00000001FF
