:10046B005389F0438901C28DD28C758A18758CFC27
:07047B00D2A9D2AFC2B922E1
:080003008040201008040201F6
:1003270012046B1204BD1204B78F2EE52EB406F625
:10033700E52F70F2752F011202DA7C007D0812009A
:10034700C88D2D1202DA7C007D081200C88D51126B
:100357000482E52F60D01204B78F2EE52E6002F5D8
:0C0367000C12027E1203731203E380E606
:03000B0002000EE2
:10000E00C0E0C0F0C083C082C0D075D000C000C0B8
:0D001E0001C002C003C004C005C006C00739
:10002B00758A18758CFCC3E509940AE508940040A1
:10003B00097508007509001204150509E509700218
:10004B000508E52F6401705AE50EC394045018C3DC
:10005B00E50B94BCE50A94024003120221050BE563
:10006B000B7002050A803BE50EC39407501EE50E8C
:10007B00C394044017E50B94F4E50A940140031272
:10008B000221050BE50B7002050A8016C3E50B94E4
:10009B002CE50A94014003120221050BE50B7002BB
:0200AB00050A44
:1000AD00D007D006D005D004D003D002D001D000A7
:0B00BD00D0D0D082D083D0F0D0E03251
:10048200753102E4F532750F01F510F533F5347567
:050492000E02F50C2232
:10027E00E531B52D1DE532B551181202DA7C007D3F
:10028E00081200C88D2D1202DA7C007D081200C8FB
:10029E008D51E4F55AE55AC3950E502F740F255A19
:1002AE00F8E6652D70217433255AF8E6B55118120B
:1002BE0002DA7C007D081200C88D2D1202DA7C0055
:0B02CE007D081200C88D51055A80CA3F
:0102D9002202
:10037300E4F530E530C3950E5019740F2530F8E6D7
:10038300FF74332530F8E690000393FD120447050C
:100393003080E0E53290000393FDAF31120447E56E
:0B03A3005190000393FDAF2D020447B2
:10015300E4F530E530C3950E501B740F2530F8E6F7
:10016300B5310E74332530F8E6B53205E4F52F804A
:1001730004053080DE85315285320DE4F530E50E1D
:1001830014FFE530C39F5028AF30C3E50E9FFD74C5
:100193000D2DF8E6FB740E2DF8A603C3E50E9FFFA5
:1001A30074312FF8E6FD74322FF8A605053080CEA2
:0701B30085520F850D332278
:06022100750A00750B00D8
:10022700E50CB4020E120153E53270047532072251
:10023700153222E50CB4050E120153E53170047531
:10024700310722153122E50CB4070F120153E531AE
:10025700B40704E4F53122053122E50CB40A0F1284
:100267000153E532B40704E4F53222053222E50CE6
:07027700B40103E4F52F229E
:1003E300E531652D702BE53265517025E50EC3941B
:1003F3000A501E050E740D250EF8E6FF740E250E29
:10040300F8A6077431250EF8E6FF7432250EF8A618
:020413000722BE
:0504BD00C2B6C2B52229
:0203AE00A9079D
:1003B000E4FBFAAF0374807E00A807088006CEA293
:1003C000E713CE13D8F8FFE9FDEF5D24FF92B4D216
:1003D000B6C2B60BBB00010AEB64084A70D5D2B5B1
:0203E000C2B5A4
:0103E20022F8
:10044700AE05AC07AF061203AEAF047480A8070869
:100457008002C313D8FCF4F5807F017E0012049755
:040467007580FF227B
:0504B700E4AF59F55906
:0104BC00221D
:1001BA007F637590FFC2932097027F012096027F8A
:1001CA00052095027F092094027F0D7590FFC29247
:1001DA002097027F022096027F062095027F0A203E
:1001EA0094027F0E7590FFC2912097027F0320969A
:1001FA00027F072095027F0B2094027F0F7590FFE4
:10020A00C2902097027F042096027F082095027FE1
:06021A000C2094027F108D
:0102200022BB
:100415008557581201BA8F57E4FFFEEF2401FDE41A
:100425003EFC7A00EDB5580EEAB5040AE557B4630B
:1004350005EF04F559220FBF00010EEF64104E7051
:01044500DADC
:010446002293
:10049700EF4E600F7D027CEFDCFEDDFCEF1F70F09E
:0304A7001E80EDC7
:0104AA00222F
:030000000204AB4C
:0C04AB00787FE4F6D8FD75815A02032723
:1000C800C2D5EC30E709B2D5E4C39DFDE49CFCEE53
:1000D80030E715B2D5E4C39FFFE49EFE1200FEC3CD
:1000E800E49DFDE49CFC80031200FE30D507C3E4C8
:0600F8009FFFE49EFE22C2
:1002DA00AC53AD54AE55AF567810EC4D4E4F70043A
:1002EA007CA57DA5C3EC13FCED13FDEE13FEEF1305
:1002FA00FF5010EC64CCFCED644CFDEE644EFEEF56
:10030A0064CEFFD8DF8C538D548E558F56EE547FB2
:0D031A00FE228E538F5474A5F555F5562222
:1000FE00BC000BBE0029EF8DF084FFADF022E4CCE6
:10010E00F875F008EF2FFFEE33FEEC33FCEE9DECAE
:10011E00984005FCEE9DFE0FD5F0E9E4CEFD22EDF4
:10012E00F8F5F0EE8420D21CFEADF075F008EF2F3E
:10013E00FFED33FD4007985006D5F0F222C398FD2F
:05014E000FD5F0EA22CC
:00000001FF
