:100800007D3CE4FF1208737D427F011208737DA9CD
:100810007F021208737D857F031208737D857F0434
:100820001208737DA97F051208737D427F061208A6
:0A083000737D3C7F0712087380C639
:10089700EF4E600F7D027CEFDCFEDDFCEF1F70F09A
:0308A7001E80EDC3
:0108AA00222B
:02083A00A9070C
:10083C00C2B6C2B5E4FBFAAF0374807E00A8070809
:10084C008006CEA2E713CE13D8F8FFE9FDEF5D24A6
:10085C00FF92B4D2B6C2B60BBB00010AEB64084AD5
:06086C0070D5D2B5C2B543
:010872002263
:10087300AE05AC07AF0612083AAF047480A80708A8
:100883008002C313D8FCF4F5807F017E0012089721
:040893007580FF224B
:030000000208AB48
:0C08AB00787FE4F6D8FD75810702080094
:00000001FF
