:0A08C8000808FEFDFBF7EFDFBF7F1D
:1008B400EF4E600F7D027CEFDCFEDDFCEF1F70F07D
:0308C4001E80EDA6
:0108C700220E
:10088C00E4FBFA74082BF8E6F5A07FF47E0112085D
:10089C00B475A0FF7FF47E011208B40BBB00010AF3
:0808AC00EB64084A70DD80D8FE
:03000000020800F3
:0C080000787FE4F6D8FD75810F020847F0
:10080C0002088CE493A3F8E493A34003F68001F26E
:10081C0008DFF48029E493A3F85407240CC8C333ED
:10082C00C4540F4420C8834004F456800146F6DFBC
:10083C00E4800B01020408102040809008C8E47E7C
:10084C00019360BCA3FF543F30E509541FFEE493B1
:10085C00A360010ECF54C025E060A840B8E493A378
:10086C00FAE493A3F8E493A3C8C582C8CAC583CAA3
:10087C00F0A3C8C582C8CAC583CADFE9DEE780BE5B
:0108D2000025
:00000001FF
